{
  "abi": [
    {
      "inputs": [],
      "stateMutability": "nonpayable",
      "type": "constructor"
    },
    {
      "anonymous": false,
      "inputs": [
        {
          "indexed": true,
          "internalType": "address",
          "name": "owner",
          "type": "address"
        },
        {
          "indexed": true,
          "internalType": "address",
          "name": "approved",
          "type": "address"
        },
        {
          "indexed": true,
          "internalType": "uint256",
          "name": "tokenId",
          "type": "uint256"
        }
      ],
      "name": "Approval",
      "type": "event"
    },
    {
      "anonymous": false,
      "inputs": [
        {
          "indexed": true,
          "internalType": "address",
          "name": "owner",
          "type": "address"
        },
        {
          "indexed": true,
          "internalType": "address",
          "name": "operator",
          "type": "address"
        },
        {
          "indexed": false,
          "internalType": "bool",
          "name": "approved",
          "type": "bool"
        }
      ],
      "name": "ApprovalForAll",
      "type": "event"
    },
    {
      "anonymous": false,
      "inputs": [
        {
          "indexed": false,
          "internalType": "uint256",
          "name": "happiness",
          "type": "uint256"
        },
        {
          "indexed": false,
          "internalType": "uint256",
          "name": "hunger",
          "type": "uint256"
        },
        {
          "indexed": false,
          "internalType": "uint256",
          "name": "enrichment",
          "type": "uint256"
        },
        {
          "indexed": false,
          "internalType": "uint256",
          "name": "lastChecked",
          "type": "uint256"
        },
        {
          "indexed": false,
          "internalType": "string",
          "name": "imageUri",
          "type": "string"
        },
        {
          "indexed": false,
          "internalType": "uint256",
          "name": "gotchiIndex",
          "type": "uint256"
        }
      ],
      "name": "EmojiUpdated",
      "type": "event"
    },
    {
      "anonymous": false,
      "inputs": [
        {
          "indexed": true,
          "internalType": "address",
          "name": "previousOwner",
          "type": "address"
        },
        {
          "indexed": true,
          "internalType": "address",
          "name": "newOwner",
          "type": "address"
        }
      ],
      "name": "OwnershipTransferred",
      "type": "event"
    },
    {
      "anonymous": false,
      "inputs": [
        {
          "indexed": true,
          "internalType": "address",
          "name": "from",
          "type": "address"
        },
        {
          "indexed": true,
          "internalType": "address",
          "name": "to",
          "type": "address"
        },
        {
          "indexed": true,
          "internalType": "uint256",
          "name": "tokenId",
          "type": "uint256"
        }
      ],
      "name": "Transfer",
      "type": "event"
    },
    {
      "inputs": [
        {
          "internalType": "address",
          "name": "to",
          "type": "address"
        },
        {
          "internalType": "uint256",
          "name": "tokenId",
          "type": "uint256"
        }
      ],
      "name": "approve",
      "outputs": [],
      "stateMutability": "nonpayable",
      "type": "function"
    },
    {
      "inputs": [
        {
          "internalType": "address",
          "name": "owner",
          "type": "address"
        }
      ],
      "name": "balanceOf",
      "outputs": [
        {
          "internalType": "uint256",
          "name": "",
          "type": "uint256"
        }
      ],
      "stateMutability": "view",
      "type": "function"
    },
    {
      "inputs": [
        {
          "internalType": "bytes",
          "name": "",
          "type": "bytes"
        }
      ],
      "name": "checkUpkeep",
      "outputs": [
        {
          "internalType": "bool",
          "name": "upkeepNeeded",
          "type": "bool"
        },
        {
          "internalType": "bytes",
          "name": "",
          "type": "bytes"
        }
      ],
      "stateMutability": "view",
      "type": "function"
    },
    {
      "inputs": [],
      "name": "feed",
      "outputs": [],
      "stateMutability": "nonpayable",
      "type": "function"
    },
    {
      "inputs": [
        {
          "internalType": "uint256",
          "name": "tokenId",
          "type": "uint256"
        }
      ],
      "name": "getApproved",
      "outputs": [
        {
          "internalType": "address",
          "name": "",
          "type": "address"
        }
      ],
      "stateMutability": "view",
      "type": "function"
    },
    {
      "inputs": [
        {
          "internalType": "uint256",
          "name": "",
          "type": "uint256"
        }
      ],
      "name": "gotchiHolderAttributes",
      "outputs": [
        {
          "internalType": "uint256",
          "name": "gotchiIndex",
          "type": "uint256"
        },
        {
          "internalType": "uint256",
          "name": "happiness",
          "type": "uint256"
        },
        {
          "internalType": "uint256",
          "name": "hunger",
          "type": "uint256"
        },
        {
          "internalType": "uint256",
          "name": "enrichment",
          "type": "uint256"
        },
        {
          "internalType": "uint256",
          "name": "lastChecked",
          "type": "uint256"
        },
        {
          "internalType": "string",
          "name": "imageUri",
          "type": "string"
        }
      ],
      "stateMutability": "view",
      "type": "function"
    },
    {
      "inputs": [
        {
          "internalType": "address",
          "name": "",
          "type": "address"
        }
      ],
      "name": "gotchiHolders",
      "outputs": [
        {
          "internalType": "uint256",
          "name": "",
          "type": "uint256"
        }
      ],
      "stateMutability": "view",
      "type": "function"
    },
    {
      "inputs": [
        {
          "internalType": "uint256",
          "name": "gotchiTokenId",
          "type": "uint256"
        }
      ],
      "name": "gotchiStats",
      "outputs": [
        {
          "internalType": "uint256",
          "name": "happiness",
          "type": "uint256"
        },
        {
          "internalType": "uint256",
          "name": "hunger",
          "type": "uint256"
        },
        {
          "internalType": "uint256",
          "name": "enrichment",
          "type": "uint256"
        },
        {
          "internalType": "uint256",
          "name": "checked",
          "type": "uint256"
        },
        {
          "internalType": "string",
          "name": "image",
          "type": "string"
        }
      ],
      "stateMutability": "view",
      "type": "function"
    },
    {
      "inputs": [
        {
          "internalType": "address",
          "name": "owner",
          "type": "address"
        },
        {
          "internalType": "address",
          "name": "operator",
          "type": "address"
        }
      ],
      "name": "isApprovedForAll",
      "outputs": [
        {
          "internalType": "bool",
          "name": "",
          "type": "bool"
        }
      ],
      "stateMutability": "view",
      "type": "function"
    },
    {
      "inputs": [],
      "name": "myGotchi",
      "outputs": [
        {
          "internalType": "uint256",
          "name": "happiness",
          "type": "uint256"
        },
        {
          "internalType": "uint256",
          "name": "hunger",
          "type": "uint256"
        },
        {
          "internalType": "uint256",
          "name": "enrichment",
          "type": "uint256"
        },
        {
          "internalType": "uint256",
          "name": "checked",
          "type": "uint256"
        },
        {
          "internalType": "string",
          "name": "image",
          "type": "string"
        }
      ],
      "stateMutability": "view",
      "type": "function"
    },
    {
      "inputs": [],
      "name": "name",
      "outputs": [
        {
          "internalType": "string",
          "name": "",
          "type": "string"
        }
      ],
      "stateMutability": "view",
      "type": "function"
    },
    {
      "inputs": [],
      "name": "owner",
      "outputs": [
        {
          "internalType": "address",
          "name": "",
          "type": "address"
        }
      ],
      "stateMutability": "view",
      "type": "function"
    },
    {
      "inputs": [
        {
          "internalType": "uint256",
          "name": "tokenId",
          "type": "uint256"
        }
      ],
      "name": "ownerOf",
      "outputs": [
        {
          "internalType": "address",
          "name": "",
          "type": "address"
        }
      ],
      "stateMutability": "view",
      "type": "function"
    },
    {
      "inputs": [
        {
          "internalType": "uint256",
          "name": "tokenId",
          "type": "uint256"
        }
      ],
      "name": "passTime",
      "outputs": [],
      "stateMutability": "nonpayable",
      "type": "function"
    },
    {
      "inputs": [
        {
          "internalType": "bytes",
          "name": "",
          "type": "bytes"
        }
      ],
      "name": "performUpkeep",
      "outputs": [],
      "stateMutability": "nonpayable",
      "type": "function"
    },
    {
      "inputs": [],
      "name": "play",
      "outputs": [],
      "stateMutability": "nonpayable",
      "type": "function"
    },
    {
      "inputs": [],
      "name": "renounceOwnership",
      "outputs": [],
      "stateMutability": "nonpayable",
      "type": "function"
    },
    {
      "inputs": [
        {
          "internalType": "address",
          "name": "to",
          "type": "address"
        }
      ],
      "name": "safeMint",
      "outputs": [],
      "stateMutability": "nonpayable",
      "type": "function"
    },
    {
      "inputs": [
        {
          "internalType": "address",
          "name": "from",
          "type": "address"
        },
        {
          "internalType": "address",
          "name": "to",
          "type": "address"
        },
        {
          "internalType": "uint256",
          "name": "tokenId",
          "type": "uint256"
        }
      ],
      "name": "safeTransferFrom",
      "outputs": [],
      "stateMutability": "nonpayable",
      "type": "function"
    },
    {
      "inputs": [
        {
          "internalType": "address",
          "name": "from",
          "type": "address"
        },
        {
          "internalType": "address",
          "name": "to",
          "type": "address"
        },
        {
          "internalType": "uint256",
          "name": "tokenId",
          "type": "uint256"
        },
        {
          "internalType": "bytes",
          "name": "_data",
          "type": "bytes"
        }
      ],
      "name": "safeTransferFrom",
      "outputs": [],
      "stateMutability": "nonpayable",
      "type": "function"
    },
    {
      "inputs": [
        {
          "internalType": "address",
          "name": "operator",
          "type": "address"
        },
        {
          "internalType": "bool",
          "name": "approved",
          "type": "bool"
        }
      ],
      "name": "setApprovalForAll",
      "outputs": [],
      "stateMutability": "nonpayable",
      "type": "function"
    },
    {
      "inputs": [
        {
          "internalType": "bytes4",
          "name": "interfaceId",
          "type": "bytes4"
        }
      ],
      "name": "supportsInterface",
      "outputs": [
        {
          "internalType": "bool",
          "name": "",
          "type": "bool"
        }
      ],
      "stateMutability": "view",
      "type": "function"
    },
    {
      "inputs": [],
      "name": "symbol",
      "outputs": [
        {
          "internalType": "string",
          "name": "",
          "type": "string"
        }
      ],
      "stateMutability": "view",
      "type": "function"
    },
    {
      "inputs": [
        {
          "internalType": "uint256",
          "name": "tokenId",
          "type": "uint256"
        }
      ],
      "name": "tokenURI",
      "outputs": [
        {
          "internalType": "string",
          "name": "",
          "type": "string"
        }
      ],
      "stateMutability": "view",
      "type": "function"
    },
    {
      "inputs": [
        {
          "internalType": "address",
          "name": "from",
          "type": "address"
        },
        {
          "internalType": "address",
          "name": "to",
          "type": "address"
        },
        {
          "internalType": "uint256",
          "name": "tokenId",
          "type": "uint256"
        }
      ],
      "name": "transferFrom",
      "outputs": [],
      "stateMutability": "nonpayable",
      "type": "function"
    },
    {
      "inputs": [
        {
          "internalType": "address",
          "name": "newOwner",
          "type": "address"
        }
      ],
      "name": "transferOwnership",
      "outputs": [],
      "stateMutability": "nonpayable",
      "type": "function"
    }
  ],
  "bytecode": {
    "object": "0x610d00604052610c4d6080818152906200369260a03980516200002b9160089160209091019062000a71565b506040805160e081018252601560a082018181527f6b7154777664475634644434384c334e325a7a343d000000000000000000000060c08401528252825180840184528181527f596754777664475634644434384c334e325a7a343d000000000000000000000060208281019190915280840191909152835180850185528281527f596b44777664475634644434384c334e325a7a343d00000000000000000000008183015283850152835180850185528281527f596f54777664475634644434384c334e325a7a343d000000000000000000000081830152606084015283518085019094529083527f536744777664475634644434384c334e325a7a343d00000000000000000000009083015260808101919091526200015190600990600562000b00565b503480156200015f57600080fd5b50604080518082018252600b81526a456d6f6a69476f7463686960a81b602080830191825283518085019094526003845262454d4760e81b908401528151919291620001ae9160009162000a71565b508051620001c490600190602084019062000a71565b505050620001e1620001db620001f260201b60201c565b620001f6565b620001ec3362000248565b62001053565b3390565b600780546001600160a01b038381166001600160a01b0319831681179093556040519116919082907f8be0079c531659141344cd1fd0a4f28419497f9722a3daafe3b4186f6b6457e090600090a35050565b6007546001600160a01b03163314620002a85760405162461bcd60e51b815260206004820181905260248201527f4f776e61626c653a2063616c6c6572206973206e6f7420746865206f776e657260448201526064015b60405180910390fd5b6000620002c1600a620003dd60201b620010461760201c565b9050620002da600a620003e160201b6200104a1760201c565b600060086009600081548110620002f557620002f562000bda565b906000526020600020016040516020016200031292919062000ccf565b60408051601f1981840301815260c0830182528483526064602084810182815285850183815260608701938452426080880190815260a0880186815260008b8152600c8652979097208851815592516001840155905160028301559251600382015591516004830155925180519295509092620003989260058501929091019062000a71565b5050506001600160a01b0383166000908152600b60205260409020829055620003c28383620003ea565b620003d882620003d28162000410565b62000594565b505050565b5490565b80546001019055565b6200040c8282604051806020016040528060008152506200063260201b60201c565b5050565b60606000600c60008481526020019081526020016000206040518060c00160405290816000820154815260200160018201548152602001600282015481526020016003820154815260200160048201548152602001600582018054620004769062000bf0565b80601f0160208091040260200160405190810160405280929190818152602001828054620004a49062000bf0565b8015620004f55780601f10620004c957610100808354040283529160200191620004f5565b820191906000526020600020905b815481529060010190602001808311620004d757829003601f168201915b505050505081525050905060006200051c8260200151620006a560201b620010531760201c565b905060006200053a8360400151620006a560201b620010531760201c565b90506000620005588460600151620006a560201b620010531760201c565b905060008460a0015183858460405160200162000579949392919062000d39565b60408051601f19818403018152919052979650505050505050565b6000828152600260205260409020546001600160a01b0316620006115760405162461bcd60e51b815260206004820152602e60248201527f45524337323155524953746f726167653a2055524920736574206f66206e6f6e60448201526d32bc34b9ba32b73a103a37b5b2b760911b60648201526084016200029f565b60008281526006602090815260409091208251620003d89284019062000a71565b6200063e8383620007c2565b6200064d60008484846200090a565b620003d85760405162461bcd60e51b815260206004820152603260248201526000805160206200367283398151915260448201527131b2b4bb32b91034b6b83632b6b2b73a32b960711b60648201526084016200029f565b606081620006ca5750506040805180820190915260018152600360fc1b602082015290565b8160005b8115620006fa5780620006e18162000f1d565b9150620006f29050600a8362000f51565b9150620006ce565b6000816001600160401b0381111562000717576200071762000f68565b6040519080825280601f01601f19166020018201604052801562000742576020820181803683370190505b5090505b8415620007ba576200075a60018362000f7e565b915062000769600a8662000f98565b6200077690603062000faf565b60f81b8183815181106200078e576200078e62000bda565b60200101906001600160f81b031916908160001a905350620007b2600a8662000f51565b945062000746565b949350505050565b6001600160a01b0382166200081a5760405162461bcd60e51b815260206004820181905260248201527f4552433732313a206d696e7420746f20746865207a65726f206164647265737360448201526064016200029f565b6000818152600260205260409020546001600160a01b031615620008815760405162461bcd60e51b815260206004820152601c60248201527f4552433732313a20746f6b656e20616c7265616479206d696e7465640000000060448201526064016200029f565b6001600160a01b0382166000908152600360205260408120805460019290620008ac90849062000faf565b909155505060008181526002602052604080822080546001600160a01b0319166001600160a01b03861690811790915590518392907fddf252ad1be2c89b69c2b068fc378daa952ba7f163c4a11628f55a4df523b3ef908290a45050565b60006200092b846001600160a01b031662000a6260201b620011591760201c565b1562000a5757604051630a85bd0160e11b81526001600160a01b0385169063150b7a02906200096590339089908890889060040162000fca565b6020604051808303816000875af1925050508015620009a3575060408051601f3d908101601f19168201909252620009a09181019062001020565b60015b62000a3c573d808015620009d4576040519150601f19603f3d011682016040523d82523d6000602084013e620009d9565b606091505b50805162000a345760405162461bcd60e51b815260206004820152603260248201526000805160206200367283398151915260448201527131b2b4bb32b91034b6b83632b6b2b73a32b960711b60648201526084016200029f565b805181602001fd5b6001600160e01b031916630a85bd0160e11b149050620007ba565b506001949350505050565b6001600160a01b03163b151590565b82805462000a7f9062000bf0565b90600052602060002090601f01602090048101928262000aa3576000855562000aee565b82601f1062000abe57805160ff191683800117855562000aee565b8280016001018555821562000aee579182015b8281111562000aee57825182559160200191906001019062000ad1565b5062000afc92915062000b60565b5090565b82805482825590600052602060002090810192821562000b52579160200282015b8281111562000b52578251805162000b4191849160209091019062000a71565b509160200191906001019062000b21565b5062000afc92915062000b77565b5b8082111562000afc576000815560010162000b61565b8082111562000afc57600062000b8e828262000b98565b5060010162000b77565b50805462000ba69062000bf0565b6000825580601f1062000bb7575050565b601f01602090049060005260206000209081019062000bd7919062000b60565b50565b634e487b7160e01b600052603260045260246000fd5b600181811c9082168062000c0557607f821691505b6020821081141562000c2757634e487b7160e01b600052602260045260246000fd5b50919050565b8054600090600181811c908083168062000c4857607f831692505b602080841082141562000c6b57634e487b7160e01b600052602260045260246000fd5b81801562000c82576001811462000c945762000cc3565b60ff1986168952848901965062000cc3565b60008881526020902060005b8681101562000cbb5781548b82015290850190830162000ca0565b505084890196505b50505050505092915050565b6000620007ba62000ce1838662000c2d565b8462000c2d565b60005b8381101562000d0557818101518382015260200162000ceb565b8381111562000d15576000848401525b50505050565b6000815162000d2f81856020860162000ce8565b9290920192915050565b607b60f81b81527f226e616d65223a2022456d6f6a6920667269656e64222c00000000000000000060018201527f226465736372697074696f6e223a20224b65657020796f757220667269656e6460188201527f20686170707921222c22696d616765223a20220000000000000000000000000060388201526000855162000dc981604b850160208a0162000ce8565b61088b60f21b604b918401918201526a22747261697473223a205b60a81b604d8201527f7b2274726169745f74797065223a2268756e676572222c2276616c7565223a006058820152855162000e27816077840160208a0162000ce8565b62000efb62000eed62000ee062000ed962000ea462000e9662000e8f62000e5b6077898b0101611f4b60f21b815260020190565b7f7b2274726169745f74797065223a2268617070696e657373222c2276616c7565815261111d60f11b602082015260220190565b8c62000d1b565b611f4b60f21b815260020190565b7f7b2274726169745f74797065223a22656e726963686d656e74222c2276616c7581526232911d60e91b602082015260230190565b8862000d1b565b607d60f81b815260010190565b615d7d60f01b815260020190565b98975050505050505050565b634e487b7160e01b600052601160045260246000fd5b600060001982141562000f345762000f3462000f07565b5060010190565b634e487b7160e01b600052601260045260246000fd5b60008262000f635762000f6362000f3b565b500490565b634e487b7160e01b600052604160045260246000fd5b60008282101562000f935762000f9362000f07565b500390565b60008262000faa5762000faa62000f3b565b500690565b6000821982111562000fc55762000fc562000f07565b500190565b600060018060a01b038087168352808616602084015250836040830152608060608301528251806080840152620010098160a085016020870162000ce8565b601f01601f19169190910160a00195945050505050565b6000602082840312156200103357600080fd5b81516001600160e01b0319811681146200104c57600080fd5b9392505050565b61260f80620010636000396000f3fe608060405234801561001057600080fd5b506004361061018e5760003560e01c8063715018a6116100de578063b6fcf8d211610097578063c87b56dd11610071578063c87b56dd14610367578063e985e9c51461037a578063ee66372f146103b6578063f2fde38b146103db57600080fd5b8063b6fcf8d21461032c578063b88d4fde1461034c578063bee437ed1461035f57600080fd5b8063715018a6146102dd5780638da5cb5b146102e557806393e84cd9146102f657806395d89b41146102fe578063a22cb46514610306578063b09d662a1461031957600080fd5b806337a7b7d81161014b5780634585e33b116101255780634585e33b146102755780636352211e146102885780636e04ff0d1461029b57806370a08231146102bc57600080fd5b806337a7b7d81461024757806340d097c31461024f57806342842e0e1461026257600080fd5b806301ffc9a71461019357806306fdde03146101bb578063081812fc146101d0578063095ea7b3146101fb57806323b872dd146102105780633414764514610223575b600080fd5b6101a66101a1366004611cf7565b6103ee565b60405190151581526020015b60405180910390f35b6101c3610440565b6040516101b29190611d73565b6101e36101de366004611d86565b6104d2565b6040516001600160a01b0390911681526020016101b2565b61020e610209366004611dbb565b61056c565b005b61020e61021e366004611de5565b610682565b610236610231366004611d86565b6106b3565b6040516101b2959493929190611e21565b61020e61078a565b61020e61025d366004611e57565b610846565b61020e610270366004611de5565b61097c565b61020e610283366004611e72565b610997565b6101e3610296366004611d86565b610a4a565b6102ae6102a9366004611e72565b610ac1565b6040516101b2929190611ee4565b6102cf6102ca366004611e57565b610b3c565b6040519081526020016101b2565b61020e610bc2565b6007546001600160a01b03166101e3565b61020e610bf8565b6101c3610c70565b61020e610314366004611eff565b610c7f565b61020e610327366004611d86565b610c8e565b6102cf61033a366004611e57565b600b6020526000908152604090205481565b61020e61035a366004611f51565b610d32565b610236610d64565b6101c3610375366004611d86565b610d97565b6101a661038836600461202d565b6001600160a01b03918216600090815260056020908152604080832093909416825291909152205460ff1690565b6103c96103c4366004611d86565b610eea565b6040516101b296959493929190612060565b61020e6103e9366004611e57565b610fae565b60006001600160e01b031982166380ac58cd60e01b148061041f57506001600160e01b03198216635b5e139f60e01b145b8061043a57506301ffc9a760e01b6001600160e01b03198316145b92915050565b60606000805461044f9061209d565b80601f016020809104026020016040519081016040528092919081815260200182805461047b9061209d565b80156104c85780601f1061049d576101008083540402835291602001916104c8565b820191906000526020600020905b8154815290600101906020018083116104ab57829003601f168201915b5050505050905090565b6000818152600260205260408120546001600160a01b03166105505760405162461bcd60e51b815260206004820152602c60248201527f4552433732313a20617070726f76656420717565727920666f72206e6f6e657860448201526b34b9ba32b73a103a37b5b2b760a11b60648201526084015b60405180910390fd5b506000908152600460205260409020546001600160a01b031690565b600061057782610a4a565b9050806001600160a01b0316836001600160a01b031614156105e55760405162461bcd60e51b815260206004820152602160248201527f4552433732313a20617070726f76616c20746f2063757272656e74206f776e656044820152603960f91b6064820152608401610547565b336001600160a01b038216148061060157506106018133610388565b6106735760405162461bcd60e51b815260206004820152603860248201527f4552433732313a20617070726f76652063616c6c6572206973206e6f74206f7760448201527f6e6572206e6f7220617070726f76656420666f7220616c6c00000000000000006064820152608401610547565b61067d8383611168565b505050565b61068c33826111d6565b6106a85760405162461bcd60e51b8152600401610547906120d8565b61067d8383836112cc565b6000818152600c602052604081206001810154600282015460038301546004840154600590940180548695869586956060959194909391929181906106f79061209d565b80601f01602080910402602001604051908101604052809291908181526020018280546107239061209d565b80156107705780601f1061074557610100808354040283529160200191610770565b820191906000526020600020905b81548152906001019060200180831161075357829003601f168201915b505050505090509450945094509450945091939590929450565b336000908152600b6020908152604080832054808452600c909252822060020180549192600a926107bc90849061213f565b90915550506000818152600c6020526040902060020154606410156107f2576000818152600c6020526040902060646002909101555b6000818152600c602052604090206003810154600291820154610815919061213f565b61081f919061216d565b6000828152600c602052604090206001015561083a81611468565b61084381611767565b50565b6007546001600160a01b031633146108705760405162461bcd60e51b815260040161054790612181565b600061087b600a5490565b905061088b600a80546001019055565b6000600860096000815481106108a3576108a36121b6565b906000526020600020016040516020016108be92919061223b565b60408051601f1981840301815260c0830182528483526064602084810182815285850183815260608701938452426080880190815260a0880186815260008b8152600c865297909720885181559251600184015590516002830155925160038201559151600483015592518051929550909261094292600585019290910190611c48565b5050506001600160a01b0383166000908152600b6020526040902082905561096a83836117cd565b61067d8261097784610d97565b6117e7565b61067d83838360405180602001604052806000815250610d32565b6000808052600c6020527f13649b2456f1b42fef0f0040b3aaeabcd21a76a0f3f5defd4f583839455116ec5490603c6109d08342612250565b118015610a06575060008052600c6020527f13649b2456f1b42fef0f0040b3aaeabcd21a76a0f3f5defd4f583839455116e95415155b90508015610a44576000808052600c602052427f13649b2456f1b42fef0f0040b3aaeabcd21a76a0f3f5defd4f583839455116ec55610a4490610c8e565b50505050565b6000818152600260205260408120546001600160a01b03168061043a5760405162461bcd60e51b815260206004820152602960248201527f4552433732313a206f776e657220717565727920666f72206e6f6e657869737460448201526832b73a103a37b5b2b760b91b6064820152608401610547565b6000808052600c6020527f13649b2456f1b42fef0f0040b3aaeabcd21a76a0f3f5defd4f583839455116ec54606090603c610afc8242612250565b118015610b32575060008052600c6020527f13649b2456f1b42fef0f0040b3aaeabcd21a76a0f3f5defd4f583839455116e95415155b9250509250929050565b60006001600160a01b038216610ba65760405162461bcd60e51b815260206004820152602960248201527f4552433732313a2061646472657373207a65726f206973206e6f7420612076616044820152683634b21037bbb732b960b91b6064820152608401610547565b506001600160a01b031660009081526003602052604090205490565b6007546001600160a01b03163314610bec5760405162461bcd60e51b815260040161054790612181565b610bf66000611881565b565b336000908152600b6020908152604080832054808452600c909252822060030180549192600a92610c2a90849061213f565b90915550506000818152600c6020526040902060030154606410156107f2576000818152600c60205260409020606460038201819055600291820154610815919061213f565b60606001805461044f9061209d565b610c8a3383836118d3565b5050565b6000818152600c6020526040902060020154600a11610ccf576000818152600c602052604081206002018054600a9290610cc9908490612250565b90915550505b6000818152600c6020526040902060030154600a116107f2576000818152600c602052604081206003018054600a9290610d0a908490612250565b90915550506000818152600c602052604090206003810154600291820154610815919061213f565b610d3c33836111d6565b610d585760405162461bcd60e51b8152600401610547906120d8565b610a44848484846119a2565b336000908152600b6020526040812054819081908190606090610d86906106b3565b945094509450945094509091929394565b60606000600c60008481526020019081526020016000206040518060c00160405290816000820154815260200160018201548152602001600282015481526020016003820154815260200160048201548152602001600582018054610dfb9061209d565b80601f0160208091040260200160405190810160405280929190818152602001828054610e279061209d565b8015610e745780601f10610e4957610100808354040283529160200191610e74565b820191906000526020600020905b815481529060010190602001808311610e5757829003601f168201915b50505050508152505090506000610e8e8260200151611053565b90506000610e9f8360400151611053565b90506000610eb08460600151611053565b905060008460a00151838584604051602001610ecf9493929190612283565b60408051601f19818403018152919052979650505050505050565b600c602052806000526040600020600091509050806000015490806001015490806002015490806003015490806004015490806005018054610f2b9061209d565b80601f0160208091040260200160405190810160405280929190818152602001828054610f579061209d565b8015610fa45780601f10610f7957610100808354040283529160200191610fa4565b820191906000526020600020905b815481529060010190602001808311610f8757829003601f168201915b5050505050905086565b6007546001600160a01b03163314610fd85760405162461bcd60e51b815260040161054790612181565b6001600160a01b03811661103d5760405162461bcd60e51b815260206004820152602660248201527f4f776e61626c653a206e6577206f776e657220697320746865207a65726f206160448201526564647265737360d01b6064820152608401610547565b61084381611881565b5490565b80546001019055565b6060816110775750506040805180820190915260018152600360fc1b602082015290565b8160005b81156110a1578061108b8161242e565b915061109a9050600a8361216d565b915061107b565b60008167ffffffffffffffff8111156110bc576110bc611f3b565b6040519080825280601f01601f1916602001820160405280156110e6576020820181803683370190505b5090505b8415611151576110fb600183612250565b9150611108600a86612449565b61111390603061213f565b60f81b818381518110611128576111286121b6565b60200101906001600160f81b031916908160001a90535061114a600a8661216d565b94506110ea565b949350505050565b6001600160a01b03163b151590565b600081815260046020526040902080546001600160a01b0319166001600160a01b038416908117909155819061119d82610a4a565b6001600160a01b03167f8c5be1e5ebec7d5bd14f71427d1e84f3dd0314c0f7b2291e5b200ac8c7c3b92560405160405180910390a45050565b6000818152600260205260408120546001600160a01b031661124f5760405162461bcd60e51b815260206004820152602c60248201527f4552433732313a206f70657261746f7220717565727920666f72206e6f6e657860448201526b34b9ba32b73a103a37b5b2b760a11b6064820152608401610547565b600061125a83610a4a565b9050806001600160a01b0316846001600160a01b031614806112a157506001600160a01b0380821660009081526005602090815260408083209388168352929052205460ff165b806111515750836001600160a01b03166112ba846104d2565b6001600160a01b031614949350505050565b826001600160a01b03166112df82610a4a565b6001600160a01b0316146113435760405162461bcd60e51b815260206004820152602560248201527f4552433732313a207472616e736665722066726f6d20696e636f72726563742060448201526437bbb732b960d91b6064820152608401610547565b6001600160a01b0382166113a55760405162461bcd60e51b8152602060048201526024808201527f4552433732313a207472616e7366657220746f20746865207a65726f206164646044820152637265737360e01b6064820152608401610547565b6113b0600082611168565b6001600160a01b03831660009081526003602052604081208054600192906113d9908490612250565b90915550506001600160a01b038216600090815260036020526040812080546001929061140790849061213f565b909155505060008181526002602052604080822080546001600160a01b0319166001600160a01b0386811691821790925591518493918716917fddf252ad1be2c89b69c2b068fc378daa952ba7f163c4a11628f55a4df523b3ef91a4505050565b6000600960008154811061147e5761147e6121b6565b9060005260206000200180546114939061209d565b80601f01602080910402602001604051908101604052809291908181526020018280546114bf9061209d565b801561150c5780601f106114e15761010080835404028352916020019161150c565b820191906000526020600020905b8154815290600101906020018083116114ef57829003601f168201915b5050506000858152600c60205260409020600101549293505050606414156115dc576009600081548110611542576115426121b6565b9060005260206000200180546115579061209d565b80601f01602080910402602001604051908101604052809291908181526020018280546115839061209d565b80156115d05780601f106115a5576101008083540402835291602001916115d0565b820191906000526020600020905b8154815290600101906020018083116115b357829003601f168201915b5050505050905061170d565b6000828152600c60205260409020600101546042101561160a576009600181548110611542576115426121b6565b6000828152600c602052604090206001015460211015611638576009600281548110611542576115426121b6565b6000828152600c602052604090206001015415611663576009600381548110611542576115426121b6565b6009600481548110611677576116776121b6565b90600052602060002001805461168c9061209d565b80601f01602080910402602001604051908101604052809291908181526020018280546116b89061209d565b80156117055780601f106116da57610100808354040283529160200191611705565b820191906000526020600020905b8154815290600101906020018083116116e857829003601f168201915b505050505090505b600060088260405160200161172392919061245d565b60408051601f198184030181529181526000858152600c6020908152919020825192935061175992600590910191840190611c48565b5061067d8361097785610d97565b6000818152600c602052604090819020600181015460028201546003830154600484015494517ff1aaf53d815d61c85eae2a4774cfc7c4d201982835ea878954a62465535b3a77956117c29590916005909101908890612482565b60405180910390a150565b610c8a8282604051806020016040528060008152506119d5565b6000828152600260205260409020546001600160a01b03166118625760405162461bcd60e51b815260206004820152602e60248201527f45524337323155524953746f726167653a2055524920736574206f66206e6f6e60448201526d32bc34b9ba32b73a103a37b5b2b760911b6064820152608401610547565b6000828152600660209081526040909120825161067d92840190611c48565b600780546001600160a01b038381166001600160a01b0319831681179093556040519116919082907f8be0079c531659141344cd1fd0a4f28419497f9722a3daafe3b4186f6b6457e090600090a35050565b816001600160a01b0316836001600160a01b031614156119355760405162461bcd60e51b815260206004820152601960248201527f4552433732313a20617070726f766520746f2063616c6c6572000000000000006044820152606401610547565b6001600160a01b03838116600081815260056020908152604080832094871680845294825291829020805460ff191686151590811790915591519182527f17307eab39ab6107e8899845ad3d59bd9653f200f220920489ca2b5937696c31910160405180910390a3505050565b6119ad8484846112cc565b6119b984848484611a08565b610a445760405162461bcd60e51b81526004016105479061252d565b6119df8383611b06565b6119ec6000848484611a08565b61067d5760405162461bcd60e51b81526004016105479061252d565b60006001600160a01b0384163b15611afb57604051630a85bd0160e11b81526001600160a01b0385169063150b7a0290611a4c90339089908890889060040161257f565b6020604051808303816000875af1925050508015611a87575060408051601f3d908101601f19168201909252611a84918101906125bc565b60015b611ae1573d808015611ab5576040519150601f19603f3d011682016040523d82523d6000602084013e611aba565b606091505b508051611ad95760405162461bcd60e51b81526004016105479061252d565b805181602001fd5b6001600160e01b031916630a85bd0160e11b149050611151565b506001949350505050565b6001600160a01b038216611b5c5760405162461bcd60e51b815260206004820181905260248201527f4552433732313a206d696e7420746f20746865207a65726f20616464726573736044820152606401610547565b6000818152600260205260409020546001600160a01b031615611bc15760405162461bcd60e51b815260206004820152601c60248201527f4552433732313a20746f6b656e20616c7265616479206d696e746564000000006044820152606401610547565b6001600160a01b0382166000908152600360205260408120805460019290611bea90849061213f565b909155505060008181526002602052604080822080546001600160a01b0319166001600160a01b03861690811790915590518392907fddf252ad1be2c89b69c2b068fc378daa952ba7f163c4a11628f55a4df523b3ef908290a45050565b828054611c549061209d565b90600052602060002090601f016020900481019282611c765760008555611cbc565b82601f10611c8f57805160ff1916838001178555611cbc565b82800160010185558215611cbc579182015b82811115611cbc578251825591602001919060010190611ca1565b50611cc8929150611ccc565b5090565b5b80821115611cc85760008155600101611ccd565b6001600160e01b03198116811461084357600080fd5b600060208284031215611d0957600080fd5b8135611d1481611ce1565b9392505050565b60005b83811015611d36578181015183820152602001611d1e565b83811115610a445750506000910152565b60008151808452611d5f816020860160208601611d1b565b601f01601f19169290920160200192915050565b602081526000611d146020830184611d47565b600060208284031215611d9857600080fd5b5035919050565b80356001600160a01b0381168114611db657600080fd5b919050565b60008060408385031215611dce57600080fd5b611dd783611d9f565b946020939093013593505050565b600080600060608486031215611dfa57600080fd5b611e0384611d9f565b9250611e1160208501611d9f565b9150604084013590509250925092565b85815284602082015283604082015282606082015260a060808201526000611e4c60a0830184611d47565b979650505050505050565b600060208284031215611e6957600080fd5b611d1482611d9f565b60008060208385031215611e8557600080fd5b823567ffffffffffffffff80821115611e9d57600080fd5b818501915085601f830112611eb157600080fd5b813581811115611ec057600080fd5b866020828501011115611ed257600080fd5b60209290920196919550909350505050565b82151581526040602082015260006111516040830184611d47565b60008060408385031215611f1257600080fd5b611f1b83611d9f565b915060208301358015158114611f3057600080fd5b809150509250929050565b634e487b7160e01b600052604160045260246000fd5b60008060008060808587031215611f6757600080fd5b611f7085611d9f565b9350611f7e60208601611d9f565b925060408501359150606085013567ffffffffffffffff80821115611fa257600080fd5b818701915087601f830112611fb657600080fd5b813581811115611fc857611fc8611f3b565b604051601f8201601f19908116603f01168101908382118183101715611ff057611ff0611f3b565b816040528281528a602084870101111561200957600080fd5b82602086016020830137600060208483010152809550505050505092959194509250565b6000806040838503121561204057600080fd5b61204983611d9f565b915061205760208401611d9f565b90509250929050565b86815285602082015284604082015283606082015282608082015260c060a0820152600061209160c0830184611d47565b98975050505050505050565b600181811c908216806120b157607f821691505b602082108114156120d257634e487b7160e01b600052602260045260246000fd5b50919050565b60208082526031908201527f4552433732313a207472616e736665722063616c6c6572206973206e6f74206f6040820152701ddb995c881b9bdc88185c1c1c9bdd9959607a1b606082015260800190565b634e487b7160e01b600052601160045260246000fd5b6000821982111561215257612152612129565b500190565b634e487b7160e01b600052601260045260246000fd5b60008261217c5761217c612157565b500490565b6020808252818101527f4f776e61626c653a2063616c6c6572206973206e6f7420746865206f776e6572604082015260600190565b634e487b7160e01b600052603260045260246000fd5b600081546121d98161209d565b600182811680156121f1576001811461220257612231565b60ff19841687528287019450612231565b8560005260208060002060005b858110156122285781548a82015290840190820161220f565b50505082870194505b5050505092915050565b600061115161224a83866121cc565b846121cc565b60008282101561226257612262612129565b500390565b60008151612279818560208601611d1b565b9290920192915050565b607b60f81b81527f226e616d65223a2022456d6f6a6920667269656e64222c00000000000000000060018201527f226465736372697074696f6e223a20224b65657020796f757220667269656e64601882015272103430b8383c9091161134b6b0b3b2911d101160691b6038820152845160009061230881604b850160208a01611d1b565b61088b60f21b604b918401918201526a22747261697473223a205b60a81b604d8201527f7b2274726169745f74797065223a2268756e676572222c2276616c7565223a0060588201528551612364816077840160208a01611d1b565b61209161242061241361240d6123d86123ca6123c46123906077898b0101611f4b60f21b815260020190565b7f7b2274726169745f74797065223a2268617070696e657373222c2276616c7565815261111d60f11b602082015260220190565b8c612267565b611f4b60f21b815260020190565b7f7b2274726169745f74797065223a22656e726963686d656e74222c2276616c7581526232911d60e91b602082015260230190565b88612267565b607d60f81b815260010190565b615d7d60f01b815260020190565b600060001982141561244257612442612129565b5060010190565b60008261245857612458612157565b500690565b600061246982856121cc565b8351612479818360208801611d1b565b01949350505050565b86815260006020878184015286604084015285606084015260c06080840152600085546124ae8161209d565b8060c087015260e06001808416600081146124d057600181146124e557612513565b60ff1985168984015261010089019550612513565b8a6000528660002060005b8581101561250b5781548b82018601529083019088016124f0565b8a0184019650505b505050505060a09390930193909352509695505050505050565b60208082526032908201527f4552433732313a207472616e7366657220746f206e6f6e20455243373231526560408201527131b2b4bb32b91034b6b83632b6b2b73a32b960711b606082015260800190565b6001600160a01b03858116825284166020820152604081018390526080606082018190526000906125b290830184611d47565b9695505050505050565b6000602082840312156125ce57600080fd5b8151611d1481611ce156fea2646970667358221220448fd67ab7c51b72b8d4d2b3795a7fa24320a8fe449cbfeaeda9a4983579486a64736f6c634300080a00334552433732313a207472616e7366657220746f206e6f6e204552433732315265646174613a696d6167652f7376672b786d6c3b6261736536342c50484e325a79423462577875637a306e6148523063446f764c336433647935334d793576636d63764d6a41774d43397a646d636e494864705a48526f505363784d44416c4a79426f5a576c6e614851394a7a45774d43556e49485a705a586443623367394a7a41674d4341344d4441674f4441774a7a3438636d566a6443426d615778735053636a5a6d5a6d5a6d5a6d4a794233615752306144306e4f4441774a79426f5a576c6e614851394a7a67774d436376506a786b5a575a7a506a78795957527059577848636d466b61575675644342705a44306e59536367593367394a7a51774d43636759336b394a7a51774d436367636a306e4e5441754d53556e49476479595752705a5735305657357064484d394a33567a5a584a546347466a5a55397556584e6c4a7a3438633352766343416762325a6d63325630505363774a79427a644739774c574e76624739795053636a5a6d5a6d5a6d5a6d4a79382b50484e30623341674947396d5a6e4e6c6444306e4d536367633352766343316a62327876636a306e497a424652696376506a7776636d466b6157467352334a685a476c6c626e512b50484a685a476c6862456479595752705a57353049476c6b505364694a79426a6544306e4e4441774a79426a6554306e4e4441774a794279505363314d4334304a5363675a334a685a476c6c626e5256626d6c30637a306e64584e6c636c4e7759574e6c543235566332556e506a787a64473977494342765a6d5a7a5a5851394a7a416e49484e306233417459323973623349394a794e6d5a6d5a6d5a6d596e4c7a3438633352766343416762325a6d63325630505363784a79427a644739774c574e76624739795053636a4d455a474a79382b504339795957527059577848636d466b61575675644434384c32526c5a6e4d2b50484a6c593351675a6d6c736244306e64584a734b434e684b53636764326c6b644767394a7a67774d436367614756705a326830505363344d44416e4c7a34385a79426d615778734c57397759574e7064486b394a7a41754e53632b50484268644767675a6d6c736244306e64584a734b434e694b5363675a44306e54546b354f4334334944517a4f533479597a45754e7930794e693431494445754e7930314d693433494441754d5330334f433431544451774d53417a4f546b754f574d77494441674d4330774c6a45674d4330774c6a46734e5467334c6a59744d5445324c6a6c6a4c5455754d5330794e5334354c5445784c6a6b744e5445754d6930794d43347a4c5463314c6a684d4e4441774c6a6b674d7a6b354c6a646a4d434177494441744d433478494441744d4334786244557a4e79347a4c5449324e574d744d5445754e6930794d7934314c5449304c6a67744e4459754d69307a4f53347a4c5459334c6a6c4d4e4441774c6a67674d7a6b354c6a566a4d434177494441744d4334784c5441754d5330774c6a46734e4455774c6a51744d7a6b31597930784e79347a4c5445354c6a63744d7a55754f43307a4f4334794c5455314c6a55744e5455754e5777744d7a6b31494451314d433430597a41674d4330774c6a45674d4330774c6a45744d4334785444637a4d7934304c546b35597930794d5334334c5445304c6a55744e4451754e4330794e7934324c5459344c544d354c6a4e734c5449324e5341314d7a63754e474d77494441744d433478494441744d433478494442734d546b794c6a59744e5459334c6a526a4c5449304c6a59744f43347a4c5451354c6a6b744d5455754d5330334e5334344c5449774c6a4a4d4e4441774c6a49674d7a6b35597a41674d4330774c6a45674d4330774c6a45674d47777a4f5334794c5455354e793433597930794e6934314c5445754e7930314d6934334c5445754e7930334f4334314c5441754d55777a4f546b754f53417a4f546c6a4d4341774c5441754d5341774c5441754d534177544449344d6934354c5445344f433432597930794e533435494455754d5330314d533479494445784c6a6b744e7a55754f4341794d43347a624445354d693432494455324e793430597a41674d4330774c6a45674d4330774c6a45674d4777744d6a59314c54557a4e79347a597930794d793431494445784c6a59744e4459754d6941794e4334344c5459334c6a6b674d7a6b754d32777a4d7a49754f4341304f5467754d574d77494441744d433478494441744d433478494441754d5577304c6a51744e5445754d554d744d5455754d79307a4d7934354c544d7a4c6a67744d5455754d7930314d533478494451754e4777304e5441754e43417a4f54566a4d434177494441674d4334784c5441754d5341774c6a464d4c546b35494459324c6a5a6a4c5445304c6a55674d6a45754e7930794e793432494451304c6a51744d7a6b754d7941324f4777314d7a63754e4341794e6a566a4d434177494441674d433478494441674d433478624330314e6a63754e4330784f5449754e6d4d744f43347a494449304c6a59744d5455754d5341304f5334354c5449774c6a49674e7a55754f45777a4f546b674d7a6b354c6a686a4d434177494441674d433478494441674d433478624330314f5463754e79307a4f533479597930784c6a63674d6a59754e5330784c6a63674e5449754e7930774c6a45674e7a67754e55777a4f546b674e4441774c6a466a4d434177494441674d433478494441674d433478624330314f4463754e6941784d5459754f574d314c6a45674d6a55754f5341784d533435494455784c6a49674d6a41754d7941334e533434624455324e7934304c5445354d693432597a41674d434177494441754d534177494441754d5777744e544d334c6a4d674d6a5931597a45784c6a59674d6a4d754e5341794e433434494451324c6a49674d7a6b754d7941324e793435624451354f4334784c544d7a4d693434597a41674d434177494441754d5341774c6a45674d433478624330304e5441754e43417a4f54566a4d5463754d7941784f53343349444d314c6a67674d7a67754d6941314e533431494455314c6a56734d7a6b314c5451314d433430597a41674d4341774c6a45674d4341774c6a45674d433478544459324c6a59674f446b35597a49784c6a63674d5451754e5341304e433430494449334c6a59674e6a67674d7a6b754d3277794e6a55744e544d334c6a526a4d434177494441754d534177494441754d534177544449774e79347849446b324f43347a597a49304c6a59674f43347a494451354c6a6b674d5455754d5341334e533434494449774c6a4a4d4d7a6b354c6a67674e444178597a41674d4341774c6a45674d4341774c6a45674d4777744d7a6b754d6941314f5463754e324d794e693431494445754e7941314d693433494445754e7941334f433431494441754d5577304d4441754d5341304d44466a4d434177494441754d534177494441754d534177624445784e693435494455344e793432597a49314c6a6b744e533478494455784c6a49744d5445754f5341334e5334344c5449774c6a4e4d4e4441774c6a4d674e4441774c6a6c6a4d434177494441754d534177494441754d534177624449324e5341314d7a63754d324d794d7934314c5445784c6a59674e4459754d6930794e433434494459334c6a6b744d7a6b754d3077304d4441754e5341304d4441754f474d77494441674d433478494441674d4334784c5441754d57777a4f5455674e4455774c6a526a4d546b754e7930784e79347a49444d344c6a49744d7a55754f4341314e5334314c5455314c6a56734c5451314d4334304c544d354e574d77494441674d4330774c6a45674d4334784c5441754d5577344f546b674e7a4d7a4c6a526a4d5451754e5330794d533433494449334c6a59744e4451754e43417a4f53347a4c545934624330314d7a63754e4330794e6a566a4d434177494441744d433478494441744d433478624455324e793430494445354d693432597a67754d7930794e433432494445314c6a45744e446b754f5341794d4334794c5463314c6a684d4e444178494451774d433479597a41674d4341774c5441754d5341774c5441754d5577354f5467754e7941304d7a6b754d6e6f6e4c7a34384c32632b5048526c654851676544306e4e54416c4a794235505363314d43556e49474e7359584e7a5053646959584e6c4a79426b62323170626d46756443316959584e6c62476c755a54306e62576c6b5a47786c4a7942305a5868304c57467559326876636a306e62576c6b5a47786c4a79426d623235304c584e70656d55394a7a686c6253632b384a2b",
    "linkReferences": {}
  }
}